1010020010ACQUI TERME                                                           0001918400000024000001000078710000915100017022000000350000003400000069000002870000029100000578
1010020020ALBERA LIGURE                                                         0000035700000001000000000001950000016400000359000000000000000100000001000000370000003200000069
1010020030ALESSANDRIA                                                           0008543800000093000002000356810004028400075965000001910000016700000358000015210000181100003332
1010020040ALFIANO NATTA                                                         0000079300000001000000000003280000035800000686000000030000000200000005000000270000002100000048
1010020050ALICE BEL COLLE                                                       0000078600000001000000000003480000034100000689000000060000000200000008000000260000003800000064
1010020060ALLUVIONI CAMBIO'                                                     0000101900000001000000000004820000054900001031000000030000000300000006000000930000011100000204
1010020070ALTAVILLA MONFERRATO                                                  0000048000000002000000000002350000022900000464000000020000000000000002000000280000002800000056
1010020080ALZANO SCRIVIA                                                        0000039200000001000000000001660000015700000323000000010000000100000002000000020000000100000003
1010020090ARQUATA SCRIVIA                                                       0000576500000008000000000025860000279800005384000000130000000900000022000001490000014800000297
1010020100AVOLASCA                                                              0000028000000001000000000001300000013300000263000000000000000000000000000000070000000700000014
1010020110BALZOLA                                                               0000144400000002000000000005910000062300001214000000010000000300000004000000130000001200000025
1010020120BASALUZZO                                                             0000189700000002000000000009270000093600001863000000020000000700000009000000640000008200000146
1010020130BASSIGNANA                                                            0000173700000002000000000007930000085500001648000000010000000300000004000000890000010500000194
1010020140BELFORTE MONFERRATO                                                   0000044800000001000000000002290000019900000428000000010000000000000001000000020000000000000002
1010020150BERGAMASCO                                                            0000076500000001000000000003650000037100000736000000020000000200000004000000530000004400000097
1010020160BERZANO DI TORTONA                                                    0000013200000001000000000000730000006300000136000000000000000000000000000000020000000000000002
1010020170BISTAGNO                                                              0000173300000002000000000007540000078300001537000000040000000400000008000000140000002100000035
1010020180BORGHETTO DI BORBERA                                                  0000196300000002000000000008750000088800001763000000040000000500000009000000560000006700000123
1010020190BORGORATTO ALESSANDRINO                                               0000061100000001000000000002830000031000000593000000010000000100000002000000420000003900000081
1010020200BORGO SAN MARTINO                                                     0000136600000002000000000005780000060900001187000000020000000400000006000000210000002100000042
1010020210BOSCO MARENGO                                                         0000249400000003000000000011440000118600002330000000030000000500000008000001340000014800000282
1010020220BOSIO                                                                 0000117700000002000000000005300000048800001018000000000000000100000001000000160000000900000025
1010020230BOZZOLE                                                               0000029300000001000000000001360000015300000289000000000000000000000000000000070000000200000009
1010020240BRIGNANO FRASCATA                                                     0000050000000001000000000001990000020500000404000000000000000000000000000000060000000700000013
1010020250CABELLA LIGURE                                                        0000064100000001000000000003640000032000000684000000010000000100000002000001010000010000000201
1010020260CAMAGNA MONFERRATO                                                    0000053700000001000000000002570000024500000502000000020000000000000002000000300000002200000052
1010020270CAMINO                                                                0000073400000002000000000003560000037300000729000000010000000000000001000000270000003100000058
1010020280CANTALUPO LIGURE                                                      0000055500000001000000000002910000030800000599000000000000000400000004000000540000006100000115
1010020290CAPRIATA D'ORBA                                                       0000184500000002000000000008430000088400001727000000030000000100000004000000770000006300000140
1010020300CARBONARA SCRIVIA                                                     0000096600000001000000000004350000045000000885000000010000000200000003000000250000002500000050
1010020301CARENTINO                                                             0000031300000001000000000001440000013400000278000000010000000000000001000000080000000600000014
1010020310CAREZZANO                                                             0000044900000001000000000001900000019700000387000000000000000000000000000000020000000500000007
1010020320CARPENETO                                                             0000091300000001000000000004570000043300000890000000000000000200000002000000410000004000000081
1010020330CARREGA LIGURE                                                        0000011900000001000000000001450000014700000292000000000000000000000000000000980000011400000212
1010020340CARROSIO                                                              0000046500000001000000000002240000023100000455000000010000000000000001000000350000004800000083
1010020350CARTOSIO                                                              0000080500000001000000000003250000033200000657000000020000000000000002000000100000001300000023
1010020360CASAL CERMELLI                                                        0000114600000002000000000004940000055100001045000000030000000000000003000000340000003700000071
1010020370CASALEGGIO BOIRO                                                      0000037700000001000000000001980000018100000379000000020000000000000002000000200000001700000037
1010020380CASALE MONFERRATO                                                     0003524400000043000001000138090001569400029503000000750000007300000148000006380000062200001260
1010020390CASALNOCETO                                                           0000087700000001000000000004230000042800000851000000010000000100000002000000300000001400000044
1010020400CASASCO                                                               0000014900000001000000000000790000007500000154000000000000000100000001000000230000002900000052
1010020410CASSANO SPINOLA                                                       0000185200000002000000000007810000078200001563000000010000000300000004000000380000002100000059
1010020420CASSINE                                                               0000304200000004000000000013710000138500002756000000060000000600000012000001440000013000000274
1010020430CASSINELLE                                                            0000086400000002000000000004670000043500000902000000030000000000000003000001030000008100000184
1010020440CASTELLANIA                                                           0000009500000001000000000000410000005300000094000000000000000000000000000000060000000700000013
1010020450CASTELLAR GUIDOBONO                                                   0000040200000001000000000001830000017100000354000000010000000000000001000000010000000000000001
1010020460CASTELLAZZO BORMIDA                                                   0000426800000004000000000021290000227500004404000000140000000800000022000003550000037600000731
1010020470CASTELLETTO D'ERRO                                                    0000015300000001000000000000650000007000000135000000000000000000000000000000010000000000000001
1010020480CASTELLETTO D'ORBA                                                    0000189100000003000000000008660000087500001741000000070000000400000011000000290000003100000060
1010020490CASTELLETTO MERLI                                                     0000047000000001000000000002380000023300000471000000010000000100000002000000280000002400000052
1010020500CASTELLETTO MONFERRATO                                                0000142800000002000000000006740000067300001347000000040000000500000009000000260000001900000045
1010020510CASTELNUOVO BORMIDA                                                   0000064800000001000000000003200000034600000666000000020000000000000002000000500000004400000094
1010020520CASTELNUOVO SCRIVIA                                                   0000562400000007000000000023690000257500004944000000070000001400000021000002500000027500000525
1010020521CASTELSPINA                                                           0000039400000001000000000002020000024100000443000000000000000000000000000000390000005000000089
1010020530CAVATORE                                                              0000031000000001000000000001400000012600000266000000020000000000000002000000110000000500000016
1010020540CELLA MONTE                                                           0000050900000001000000000002290000024500000474000000000000000000000000000000150000002700000042
1010020550CERESETO                                                              0000043100000001000000000002180000023300000451000000010000000100000002000000270000004300000070
1010020560CERRETO GRUE                                                          0000033900000001000000000001540000015100000305000000010000000000000001000000100000000100000011
1010020570CERRINA                                                               0000159900000002000000000006190000063000001249000000020000000100000003000000220000001700000039
1010020580CONIOLO                                                               0000042200000001000000000001910000020700000398000000000000000000000000000000070000000600000013
1010020590CONZANO                                                               0000100500000002000000000004420000050600000948000000010000000300000004000000530000006900000122
1010020600COSTA VESCOVATO                                                       0000034700000001000000000001610000016900000330000000000000000100000001000000230000002600000049
1010020610CREMOLINO                                                             0000095900000001000000000004740000045300000927000000000000000200000002000000100000000900000019
1010020620CUCCARO MONFERRATO                                                    0000036700000001000000000001730000017600000349000000000000000200000002000000260000002300000049
1010020630DENICE                                                                0000020400000001000000000000890000008800000177000000000000000000000000000000070000000500000012
1010020640DERNICE                                                               0000024900000001000000000001250000012000000245000000000000000000000000000000140000001500000029
1010020650FABBRICA CURONE                                                       0000083800000004000000000003340000035700000691000000010000000000000001000000410000004400000085
1010020660FELIZZANO                                                             0000239500000002000000000009900000100400001994000000050000000200000007000000500000003500000085
1010020670FRACONALTO                                                            0000032800000001000000000002110000019100000402000000000000000200000002000000410000005400000095
1010020680FRANCAVILLA BISIO                                                     0000045900000001000000000002300000023800000468000000010000000000000001000000170000001700000034
1010020690FRASCARO                                                              0000041800000001000000000001710000021200000383000000020000000100000003000000130000001200000025
1010020700FRASSINELLO MONFERRATO                                                0000056200000001000000000002170000024600000463000000000000000000000000000000070000001100000018
1010020710FRASSINETO PO                                                         0000146500000002000000000006320000067000001302000000030000000300000006000000290000003700000066
1010020720FRESONARA                                                             0000069400000001000000000003720000036700000739000000030000000000000003000000590000007400000133
1010020730FRUGAROLO                                                             0000185600000002000000000008720000091800001790000000080000000400000012000000740000005900000133
1010020740FUBINE                                                                0000168300000002000000000006870000075400001441000000010000000100000002000000760000007200000148
1010020750GABIANO                                                               0000125900000002000000000005650000056300001128000000010000000200000003000000370000003000000067
1010020760GAMALERO                                                              0000077800000001000000000003840000042400000808000000020000000200000004000000540000005900000113
1010020770GARBAGNA                                                              0000068100000001000000000003190000034100000660000000020000000200000004000000390000005100000090
1010020780GAVAZZANA                                                             0000012700000001000000000000860000006600000152000000000000000100000001000000060000000400000010
1010020790GAVI                                                                  0000450600000006000000000019750000199300003968000000110000000400000015000000600000006300000123
1010020800GIAROLE                                                               0000069000000001000000000002910000032900000620000000020000000000000002000000030000000300000006
1010020810GREMIASCO                                                             0000036100000001000000000001730000018000000353000000000000000000000000000000260000003200000058
1010020820GROGNARDO                                                             0000032100000001000000000001400000012900000269000000010000000000000001000000060000000400000010
1010020830GRONDONA                                                              0000053800000001000000000002410000024200000483000000000000000100000001000000100000000900000019
1010020840GUAZZORA                                                              0000029400000001000000000001450000016600000311000000010000000000000001000000200000003500000055
1010020850ISOLA SANT'ANTONIO                                                    0000076600000001000000000003210000033000000651000000000000000100000001000000210000002500000046
1010020860LERMA                                                                 0000080100000001000000000003770000039200000769000000040000000200000006000000150000000900000024
1010020870LU                                                                    0000121300000001000000000005170000054800001065000000060000000100000007000000320000003700000069
1010020880MALVICINO                                                             0000012100000001000000000000400000004900000089000000000000000000000000000000030000000200000005
1010020890MASIO                                                                 0000144000000002000000000007350000074900001484000000050000000200000007000001380000014200000280
1010020900MELAZZO                                                               0000118500000001000000000006160000055800001174000000040000000200000006000000490000004000000089
1010020910MERANA                                                                0000018500000001000000000001040000008600000190000000010000000000000001000000160000001300000029
1010020920MIRABELLO MONFERRATO                                                  0000136100000002000000000005950000061900001214000000020000000000000002000000170000001900000036
1010020930MOLARE                                                                0000204400000003000000000009300000102400001954000000070000000700000014000000440000004600000090
1010020940MOLINO DEI TORTI                                                      0000073800000001000000000002970000030900000606000000020000000100000003000000240000003500000059
1010020950MOMBELLO MONFERRATO                                                   0000109500000002000000000005120000052200001034000000010000000300000004000000680000005400000122
1010020960MOMPERONE                                                             0000023200000001000000000001010000010000000201000000010000000000000001000000100000000400000014
1010020970MONCESTINO                                                            0000022600000001000000000001110000013400000245000000000000000100000001000000190000003700000056
1010020980MONGIARDINO LIGURE                                                    0000020400000001000000000001790000017000000349000000010000000200000003000000850000009800000183
1010020990MONLEALE                                                              0000063400000001000000000002560000026700000523000000030000000300000006000000170000001700000034
1010021000MONTACUTO                                                             0000033900000001000000000001690000013800000307000000000000000100000001000000210000001800000039
1010021010MONTALDEO                                                             0000031800000001000000000001510000014200000293000000000000000000000000000000190000002000000039
1010021020MONTALDO BORMIDA                                                      0000069000000001000000000003450000030500000650000000030000000200000005000000280000002200000050
1010021021MONTECASTELLO                                                         0000034000000001000000000001400000015300000293000000000000000100000001000000070000000800000015
1010021030MONTECHIARO D'ACQUI                                                   0000058500000002000000000002730000029000000563000000000000000000000000000000460000005000000096
1010021040MONTEGIOCO                                                            0000030600000001000000000001500000012700000277000000000000000000000000000000080000000400000012
1010021050MONTEMARZINO                                                          0000035200000001000000000001540000015000000304000000000000000100000001000000050000000100000006
1010021060MORANO SUL PO                                                         0000156900000002000000000006270000067300001300000000020000000200000004000000200000001600000036
1010021070MORBELLO                                                              0000045900000001000000000002010000018600000387000000010000000000000001000000010000000000000001
1010021080MORNESE                                                               0000070600000001000000000003400000032600000666000000000000000100000001000000170000001400000031
1010021090MORSASCO                                                              0000071800000001000000000003010000031400000615000000010000000200000003000000070000000900000016
1010021100MURISENGO                                                             0000151100000002000000000006280000065000001278000000040000000100000005000000300000001700000047
1010021110NOVI LIGURE                                                           0002722300000029000001000110110001222100023232000000360000005200000088000004350000040500000840
1010021120OCCIMIANO                                                             0000138500000002000000000005610000059100001152000000060000000400000010000000590000004700000106
1010021130ODALENGO GRANDE                                                       0000053300000001000000000002460000025200000498000000000000000000000000000000220000003500000057
1010021140ODALENGO PICCOLO                                                      0000027400000001000000000001130000012000000233000000010000000000000001000000060000000800000014
1010021150OLIVOLA                                                               0000014500000001000000000000540000006100000115000000000000000000000000000000040000000600000010
1010021160ORSARA BORMIDA                                                        0000041700000001000000000002270000024800000475000000000000000000000000000000580000006800000126
1010021170OTTIGLIO                                                              0000065900000001000000000002660000029000000556000000010000000000000001000000070000000900000016
1010021180OVADA                                                                 0001167700000011000000000047400000527200010012000000200000001800000038000001710000018600000357
1010021190OVIGLIO                                                               0000129400000002000000000005550000058800001143000000020000000400000006000000150000001600000031
1010021200OZZANO MONFERRATO                                                     0000156700000002000000000006220000070900001331000000020000000300000005000000340000002700000061
1010021210PADERNA                                                               0000024300000001000000000000910000009200000183000000000000000100000001000000000000000000000000
1010021220PARETO                                                                0000068800000002000000000003060000027800000584000000000000000100000001000000150000001600000031
1010021230PARODI LIGURE                                                         0000072100000003000000000003660000033300000699000000000000000000000000000000470000004100000088
1010021240PASTURANA                                                             0000101100000001000000000005090000058900001098000000010000000700000008000000310000002700000058
1010021250PECETTO DI VALENZA                                                    0000131200000002000000000005900000059100001181000000020000000100000003000000570000005200000109
1010021260PIETRA MARAZZI                                                        0000093200000001000000000004030000042500000828000000050000000300000008000000290000002800000057
1010021270PIOVERA                                                               0000073600000001000000000003850000040000000785000000030000000100000004000000520000006600000118
1010021280POMARO MONFERRATO                                                     0000042300000001000000000001830000017300000356000000010000000200000003000000080000000800000016
1010021290PONTECURONE                                                           0000378100000004000000000015070000161300003120000000030000000300000006000000760000006500000141
1010021300PONTESTURA                                                            0000155800000003000000000006680000070800001376000000060000000400000010000000380000004700000085
1010021310PONTI                                                                 0000067700000001000000000002790000030400000583000000010000000200000003000000070000000500000012
1010021320PONZANO MONFERRATO                                                    0000040400000001000000000001600000017000000330000000000000000000000000000000020000000400000006
1010021330PONZONE                                                               0000120600000002000000000005870000055100001138000000020000000200000004000000790000007600000155
1010021340POZZOL GROPPO                                                         0000039700000002000000000001740000016200000336000000000000000000000000000000080000000700000015
1010021350POZZOLO FORMIGARO                                                     0000477100000005000000000020240000216300004187000000070000001100000018000000970000009200000189
1010021360PRASCO                                                                0000053400000001000000000002520000024200000494000000020000000100000003000000150000001900000034
1010021370PREDOSA                                                               0000207400000003000000000010030000103400002037000000030000000500000008000001680000017400000342
1010021380QUARGNENTO                                                            0000129600000001000000000005930000062200001215000000020000000500000007000000350000003900000074
1010021390QUATTORDIO                                                            0000175300000002000000000007200000077100001491000000040000000300000007000000520000005200000104
1010021400RICALDONE                                                             0000068700000001000000000003040000032500000629000000010000000200000003000000520000006400000116
1010021410RIVALTA BORMIDA                                                       0000144300000002000000000006800000070100001381000000030000000400000007000001010000009600000197
1010021420RIVARONE                                                              0000037200000001000000000001810000018700000368000000020000000200000004000000210000002000000041
1010021430ROCCAFORTE LIGURE                                                     0000016700000001000000000001220000012200000244000000010000000000000001000000370000006400000101
1010021440ROCCA GRIMALDA                                                        0000134600000002000000000006800000064900001329000000010000000400000005000000350000002800000063
1010021450ROCCHETTA LIGURE                                                      0000022000000001000000000001200000012500000245000000000000000100000001000000350000003500000070
1010021460ROSIGNANO MONFERRATO                                                  0000165000000002000000000006980000073600001434000000030000000300000006000000280000003700000065
1010021470SALA MONFERRATO                                                       0000047500000001000000000001770000018500000362000000010000000000000001000000110000001300000024
1010021480SALE                                                                  0000424600000004000000000017980000204700003845000000110000001100000022000001850000021800000403
1010021490SAN CRISTOFORO                                                        0000057500000001000000000002540000027000000524000000010000000100000002000000070000001000000017
1010021500SAN GIORGIO MONFERRATO                                                0000127900000002000000000005340000057800001112000000020000000100000003000000260000001900000045
1010021510SAN SALVATORE MONFERRATO                                              0000462300000005000000000019050000205200003957000000120000000700000019000001290000011000000239
1010021520SAN SEBASTIANO CURONE                                                 0000054300000001000000000002360000025700000493000000000000000100000001000000360000003200000068
1010021530SANT'AGATA FOSSILI                                                    0000041300000001000000000001910000019400000385000000010000000100000002000000060000000300000009
1010021540SARDIGLIANO                                                           0000044100000001000000000002180000021200000430000000010000000200000003000000310000002500000056
1010021550SAREZZANO                                                             0000115600000002000000000005150000053600001051000000010000000300000004000000370000003400000071
1010021560SERRALUNGA DI CREA                                                    0000061700000001000000000002650000028800000553000000040000000000000004000000170000002600000043
1010021570SERRAVALLE SCRIVIA                                                    0000582000000005000000000023490000245100004800000000080000001200000020000001000000009700000197
1010021580SEZZADIO                                                              0000129100000002000000000005910000063400001225000000000000000600000006000000840000010500000189
1010021590SILVANO D'ORBA                                                        0000183000000002000000000008410000093300001774000000020000000700000009000000540000006000000114
1010021600SOLERO                                                                0000168500000002000000000007190000078300001502000000010000000200000003000000270000004200000069
1010021610SOLONGHELLO                                                           0000024500000001000000000000940000010700000201000000000000000000000000000000010000000300000004
1010021620SPIGNO MONFERRATO                                                     0000121600000002000000000005680000057000001138000000020000000100000003000000890000011200000201
1010021630SPINETO SCRIVIA                                                       0000032200000001000000000001570000015600000313000000000000000000000000000000120000001900000031
1010021640STAZZANO                                                              0000210800000003000000000010170000103900002056000000060000000500000011000000260000003600000062
1010021650STREVI                                                                0000197200000002000000000008350000086200001697000000030000000300000006000000830000007500000158
1010021660TAGLIOLO MONFERRATO                                                   0000145700000002000000000007140000071200001426000000030000000100000004000000480000006100000109
1010021670TASSAROLO                                                             0000061100000001000000000002730000025500000528000000020000000000000002000000030000000200000005
1010021680TERRUGGIA                                                             0000081200000001000000000003660000042400000790000000020000000300000005000000380000004600000084
1010021690TERZO                                                                 0000084600000001000000000004220000040700000829000000030000000300000006000000440000003600000080
1010021700TICINETO                                                              0000138400000002000000000005790000063300001212000000040000000300000007000000200000002100000041
1010021710TORTONA                                                               0002522700000027000001000101660001139900021565000000440000005000000094000002220000019100000413
1010021720TREVILLE                                                              0000028000000001000000000001120000012600000238000000000000000000000000000000010000000000000001
1010021730TRISOBBIO                                                             0000068200000001000000000002950000033000000625000000030000000100000004000000250000003900000064
1010021740VALENZA                                                               0002033900000021000000000080590000896000017019000000400000004100000081000003810000036400000745
1010021750VALMACCA                                                              0000109900000002000000000004610000051800000979000000010000000000000001000000500000005300000103
1010021760VIGNALE MONFERRATO                                                    0000114100000001000000000004940000051100001005000000020000000300000005000000630000006800000131
1010021770VIGNOLE BORBERA                                                       0000203700000002000000000009290000097100001900000000030000000300000006000000340000005300000087
1010021780VIGUZZOLO                                                             0000288400000003000000000012970000138600002683000000030000000400000007000000630000004400000107
1010021790VILLADEATI                                                            0000052100000001000000000002280000022300000451000000010000000000000001000000170000000500000022
1010021800VILLALVERNIA                                                          0000093200000001000000000004090000044700000856000000010000000500000006000000410000004500000086
1010021810VILLAMIROGLIO                                                         0000031200000001000000000002180000022000000438000000000000000100000001000000000000000000000000
1010021820VILLANOVA MONFERRATO                                                  0000174300000002000000000008020000085900001661000000010000000400000005000000520000005000000102
1010021830VILLAROMAGNANO                                                        0000075800000001000000000003350000032800000663000000010000000100000002000000230000002100000044
1010021840VISONE                                                                0000116000000001000000000004840000051800001002000000010000000000000001000000140000001800000032
1010021850VOLPEDO                                                               0000119100000001000000000004940000054000001034000000020000000100000003000000310000003000000061
1010021860VOLPEGLINO                                                            0000016000000001000000000000740000006400000138000000000000000000000000000000010000000000000001
1010021870VOLTAGGIO                                                             0000077000000001000000000003950000037000000765000000020000000000000002000000540000004100000095
1010070010AGLIANO TERME                                                         0000169700000002000000000006990000077300001472000000010000000300000004000000540000007500000129
1010070020ALBUGNANO                                                             0000046200000001000000000002120000019100000403000000010000000000000001000000040000000300000007
1010070030ANTIGNANO                                                             0000100700000002000000000004270000047200000899000000010000000100000002000000120000002200000034
1010070040ARAMENGO                                                              0000060400000001000000000002660000027000000536000000020000000100000003000000070000000700000014
1010070050ASTI                                                                  0007127600000078000001000284750003214500060620000001450000014100000286000010360000093800001974
1010070060AZZANO D'ASTI                                                         0000037100000001000000000001730000016800000341000000000000000200000002000000080000000500000013
1010070070BALDICHIERI D'ASTI                                                    0000100900000001000000000003940000041200000806000000010000000200000003000000120000000600000018
1010070080BELVEGLIO                                                             0000032000000001000000000001610000016800000329000000000000000200000002000000390000004100000080
1010070090BERZANO DI SAN PIETRO                                                 0000040600000001000000000001570000017100000328000000000000000100000001000000020000000600000008
1010070100BRUNO                                                                 0000037500000001000000000001810000017400000355000000020000000100000003000000310000002700000058
1010070110BUBBIO                                                                0000093500000001000000000003750000040800000783000000010000000100000002000000230000003300000056
1010070120BUTTIGLIERA D'ASTI                                                    0000199600000003000000000010630000103800002101000000050000000700000012000000460000004500000091
1010070130CALAMANDRANA                                                          0000156300000002000000000007250000073600001461000000060000000300000009000000450000004500000090
1010070140CALLIANO                                                              0000140600000002000000000006200000065300001273000000020000000300000005000000680000006800000136
1010070150CALOSSO                                                               0000126400000002000000000005520000056900001121000000040000000100000005000000380000004200000080
1010070160CAMERANO CASASCO                                                      0000049400000001000000000001920000018800000380000000010000000300000004000000010000000000000001
1010070170CANELLI                                                               0001023000000010000000000039910000442800008419000000160000001400000030000003000000031500000615
1010070180CANTARANA                                                             0000083900000001000000000004020000038600000788000000000000000000000000000000160000000800000024
1010070190CAPRIGLIO                                                             0000030900000001000000000001150000011800000233000000000000000200000002000000010000000000000001
1010070200CASORZO                                                               0000068700000001000000000002650000030900000574000000000000000000000000000000090000000800000017
1010070210CASSINASCO                                                            0000059200000001000000000002520000026400000516000000000000000200000002000000320000002700000059
1010070220CASTAGNOLE DELLE LANZE                                                0000364100000003000000000015220000158900003111000000090000001300000022000001090000008500000194
1010070230CASTAGNOLE MONFERRATO                                                 0000123400000002000000000005320000055300001085000000040000000100000005000000350000003700000072
1010070240CASTEL BOGLIONE                                                       0000064500000001000000000002930000025200000545000000020000000200000004000000210000001400000035
1010070250CASTELL'ALFERO                                                        0000269100000003000000000011280000119500002323000000070000000600000013000000520000003900000091
1010070260CASTELLERO                                                            0000029100000001000000000001430000013900000282000000000000000000000000000000140000000400000018
1010070270CASTELLETTO MOLINA                                                    0000016900000001000000000000600000007200000132000000010000000100000002000000030000000400000007
1010070280CASTELLO DI ANNONE                                                    0000176700000002000000000007930000079200001585000000030000000200000005000000570000006100000118
1010070290CASTELNUOVO BELBO                                                     0000093000000001000000000003930000041800000811000000010000000400000005000000530000006300000116
1010070300CASTELNUOVO CALCEA                                                    0000077900000001000000000003420000036900000711000000020000000000000002000000400000004300000083
1010070310CASTELNUOVO DON BOSCO                                                 0000303800000003000000000013090000136500002674000000060000000700000013000000770000005000000127
1010070320CASTEL ROCCHERO                                                       0000039600000001000000000001660000016800000334000000010000000100000002000000140000001300000027
1010070330CELLARENGO                                                            0000060500000001000000000003090000031400000623000000010000000000000001000000120000001700000029
1010070340CELLE ENOMONDO                                                        0000046000000001000000000001900000021600000406000000010000000000000001000000070000000300000010
1010070350CERRETO D'ASTI                                                        0000024100000001000000000000950000010300000198000000000000000000000000000000020000000200000004
1010070360CERRO TANARO                                                          0000059200000001000000000003180000032800000646000000020000000100000003000000640000006600000130
1010070370CESSOLE                                                               0000045600000001000000000001950000020800000403000000010000000100000002000000390000004300000082
1010070380CHIUSANO D'ASTI                                                       0000025400000001000000000000980000010800000206000000000000000000000000000000040000000500000009
1010070390CINAGLIO                                                              0000045900000001000000000001840000019900000383000000010000000000000001000000050000000400000009
1010070400CISTERNA D'ASTI                                                       0000124100000001000000000004710000048500000956000000030000000300000006000000090000000500000014
1010070410COAZZOLO                                                              0000030000000001000000000001150000011300000228000000000000000000000000000000000000000000000000
1010070420COCCONATO                                                             0000154000000002000000000006210000063200001253000000040000000000000004000000290000002000000049
1010070440CORSIONE                                                              0000016900000001000000000000750000008200000157000000000000000000000000000000010000000200000003
1010070450CORTANDONE                                                            0000029000000001000000000001340000014400000278000000000000000000000000000000050000001100000016
1010070460CORTANZE                                                              0000028900000001000000000001100000011300000223000000020000000000000002000000040000000100000005
1010070470CORTAZZONE                                                            0000062600000001000000000002810000027900000560000000010000000000000001000000080000001400000022
1010070480CORTIGLIONE                                                           0000056800000001000000000002490000026300000512000000030000000000000003000000350000003100000066
1010070490COSSOMBRATO                                                           0000048800000001000000000002050000021200000417000000000000000100000001000000070000000600000013
1010070500COSTIGLIOLE D'ASTI                                                    0000588200000006000000000024440000253500004979000000120000001400000026000001350000010800000243
1010070510CUNICO                                                                0000049700000001000000000002000000022000000420000000010000000200000003000000140000001500000029
1010070520DUSINO SAN MICHELE                                                    0000093800000001000000000004210000042400000845000000010000000100000002000000140000001500000029
1010070530FERRERE                                                               0000147300000002000000000006490000063400001283000000030000000400000007000000080000001200000020
1010070540FONTANILE                                                             0000054200000001000000000002340000025100000485000000010000000100000002000000260000003300000059
1010070550FRINCO                                                                0000069000000001000000000003100000028700000597000000020000000300000005000000140000000400000018
1010070560GRANA                                                                 0000061100000001000000000002440000028900000533000000010000000000000001000000210000002200000043
1010070570GRAZZANO BADOGLIO                                                     0000063900000001000000000002620000026500000527000000010000000000000001000000110000001100000022
1010070580INCISA SCAPACCINO                                                     0000203100000002000000000009090000092700001836000000040000000200000006000000780000008400000162
1010070590ISOLA D'ASTI                                                          0000204100000002000000000008810000092100001802000000060000000500000011000000540000004700000101
1010070600LOAZZOLO                                                              0000038000000001000000000001390000017300000312000000000000000000000000000000120000002100000033
1010070610MARANZANA                                                             0000030700000001000000000001330000013700000270000000010000000200000003000000190000001500000034
1010070620MARETTO                                                               0000035800000001000000000001640000016300000327000000010000000000000001000000000000000000000000
1010070630MOASCA                                                                0000040100000001000000000002060000019400000400000000000000000000000000000000080000000500000013
1010070640MOMBALDONE                                                            0000026900000001000000000001120000010600000218000000010000000100000002000000130000000900000022
1010070650MOMBARUZZO                                                            0000116300000002000000000005160000054500001061000000020000000500000007000000880000012200000210
1010070660MOMBERCELLI                                                           0000221400000002000000000009490000105600002005000000030000000700000010000000950000011500000210
1010070670MONALE                                                                0000089200000001000000000004070000039400000801000000010000000100000002000000020000000200000004
1010070680MONASTERO BORMIDA                                                     0000097000000001000000000003930000044300000836000000000000000100000001000000300000002900000059
1010070690MONCALVO                                                              0000332000000003000000000012390000145600002695000000050000000200000007000000650000006200000127
1010070700MONCUCCO TORINESE                                                     0000081100000001000000000003790000035800000737000000030000000400000007000000120000000500000017
1010070710MONGARDINO                                                            0000098600000001000000000004100000041700000827000000050000000100000006000000060000001100000017
1010070720MONTABONE                                                             0000035700000001000000000001690000015200000321000000000000000000000000000000070000000500000012
1010070730MONTAFIA                                                              0000093400000001000000000004240000038500000809000000010000000000000001000000140000001300000027
1010070740MONTALDO SCARAMPI                                                     0000068800000001000000000002970000033200000629000000010000000000000001000000000000000100000001
1010070750MONTECHIARO D'ASTI                                                    0000138200000002000000000005420000056500001107000000010000000200000003000000260000001900000045
1010070760MONTEGROSSO D'ASTI                                                    0000208400000003000000000009240000098100001905000000030000000400000007000000380000004100000079
1010070770MONTEMAGNO                                                            0000120500000001000000000005030000057400001077000000030000000100000004000000620000005300000115
1010070781MONTIGLIO MONFERRATO                                                  0000174700000004000000000007010000076100001462000000020000000300000005000000450000002800000073
1010070790MORANSENGO                                                            0000023000000001000000000001000000009600000196000000000000000100000001000000050000000600000011
1010070800NIZZA MONFERRATO                                                      0001001900000011000000000038590000433800008197000000200000001800000038000002490000025100000500
1010070810OLMO GENTILE                                                          0000010400000001000000000000630000006300000126000000000000000000000000000000220000002900000051
1010070820PASSERANO MARMORITO                                                   0000045000000001000000000001890000019200000381000000000000000000000000000000000000000300000003
1010070830PENANGO                                                               0000053800000001000000000002360000021800000454000000010000000100000002000000200000001500000035
1010070840PIEA                                                                  0000056800000001000000000002560000024600000502000000040000000000000004000000070000000600000013
1010070850PINO D'ASTI                                                           0000022600000001000000000000870000008200000169000000010000000000000001000000020000000000000002
1010070860PIOVA' MASSAIA                                                        0000064000000001000000000002580000029000000548000000010000000300000004000000020000000300000005
1010070870PORTACOMARO                                                           0000199200000002000000000008390000089200001731000000020000000500000007000000380000004600000084
1010070880QUARANTI                                                              0000019900000001000000000000890000007700000166000000020000000000000002000000000000000000000000
1010070890REFRANCORE                                                            0000156000000002000000000006870000076100001448000000060000000300000009000000370000004600000083
1010070900REVIGLIASCO D'ASTI                                                    0000085900000001000000000004040000040300000807000000030000000100000004000000290000003000000059
1010070910ROATTO                                                                0000037300000001000000000001690000015900000328000000000000000000000000000000030000000500000008
1010070920ROBELLA                                                               0000056200000001000000000002820000028000000562000000010000000200000003000000540000006700000121
1010070930ROCCA D'ARAZZO                                                        0000094100000001000000000004020000043900000841000000010000000100000002000000220000002900000051
1010070940ROCCAVERANO                                                           0000052900000001000000000003270000030100000628000000030000000100000004000001220000011700000239
1010070950ROCCHETTA PALAFEA                                                     0000040600000001000000000001620000016400000326000000000000000100000001000000130000001500000028
1010070960ROCCHETTA TANARO                                                      0000141000000002000000000006250000064600001271000000060000000100000007000000670000007200000139
1010070970SAN DAMIANO D'ASTI                                                    0000762200000007000000000030270000322100006248000000210000001800000039000000660000009500000161
1010070980SAN GIORGIO SCARAMPI                                                  0000014000000001000000000000660000005800000124000000000000000000000000000000160000001500000031
1010070990SAN MARTINO ALFIERI                                                   0000070400000001000000000002930000030000000593000000000000000500000005000000030000000100000004
1010071000SAN MARZANO OLIVETO                                                   0000101200000001000000000004890000047500000964000000030000000300000006000000710000004900000120
1010071010SAN PAOLO SOLBRITO                                                    0000105900000001000000000005110000047900000990000000060000000300000009000000110000001000000021
1010071030SCURZOLENGO                                                           0000063700000001000000000002660000024700000513000000010000000000000001000000150000000600000021
1010071040SEROLE                                                                0000016300000001000000000000670000005700000124000000010000000000000001000000040000000300000007
1010071050SESSAME                                                               0000028500000001000000000001210000012700000248000000010000000000000001000000100000000700000017
1010071060SETTIME                                                               0000053700000001000000000002030000022900000432000000000000000000000000000000000000000200000002
1010071070SOGLIO                                                                0000013500000001000000000000690000006900000138000000000000000000000000000000050000000300000008
1010071080TIGLIOLE                                                              0000160500000002000000000007030000076900001472000000030000000300000006000000170000002800000045
1010071090TONCO                                                                 0000089100000001000000000003920000039300000785000000020000000300000005000000260000003100000057
1010071100TONENGO                                                               0000019200000001000000000000880000007600000164000000010000000000000001000000010000000200000003
1010071110VAGLIO SERRA                                                          0000029800000001000000000001310000012400000255000000000000000200000002000000150000001900000034
1010071120VALFENERA                                                             0000212800000003000000000009770000096400001941000000030000000300000006000000170000000700000024
1010071130VESIME                                                                0000067800000001000000000002810000029700000578000000030000000000000003000000340000003500000069
1010071140VIALE D'ASTI                                                          0000026700000001000000000001050000010900000214000000000000000300000003000000020000000100000003
1010071150VIARIGI                                                               0000100300000001000000000004250000043800000863000000020000000200000004000000240000001800000042
1010071160VIGLIANO D'ASTI                                                       0000082300000001000000000003810000035800000739000000020000000100000003000000210000001900000040
1010071170VILLAFRANCA D'ASTI                                                    0000294200000003000000000012150000126400002479000000060000000300000009000000340000001200000046
1010071180VILLANOVA D'ASTI                                                      0000471700000005000000000021640000223900004403000000130000001600000029000000510000004700000098
1010071190VILLA SAN SECONDO                                                     0000038400000001000000000001680000018600000354000000000000000000000000000000040000000900000013
1010071200VINCHIO                                                               0000069800000001000000000002820000028700000569000000000000000100000001000000250000002600000051
1010270010ACCEGLIO                                                              0000019700000001000000000000840000007600000160000000000000000000000000000000070000000600000013
1010270020AISONE                                                                0000025700000001000000000001160000012300000239000000000000000100000001000000110000000500000016
1010270030ALBA                                                                  0002991000000032000001000116130001317200024785000000660000006200000128000004010000033100000732
1010270040ALBARETTO DELLA TORRE                                                 0000025400000001000000000001040000010700000211000000000000000100000001000000020000000500000007
1010270050ALTO                                                                  0000010400000001000000000000630000005800000121000000000000000000000000000000160000001300000029
1010270060ARGENTERA                                                             0000010100000001000000000000400000003700000077000000010000000000000001000000000000000000000000
1010270070ARGUELLO                                                              0000017400000001000000000000840000008300000167000000000000000100000001000000050000000100000006
1010270080BAGNASCO                                                              0000101200000001000000000004580000052000000978000000000000000200000002000000970000011000000207
1010270090BAGNOLO PIEMONTE                                                      0000543100000006000000000024290000249000004919000000160000001500000031000001750000018500000360
1010270100BALDISSERO D'ALBA                                                     0000108400000001000000000004510000044200000893000000030000000500000008000000190000001500000034
1010270110BARBARESCO                                                            0000064100000001000000000002640000026500000529000000010000000200000003000000120000002600000038
1010270120BARGE                                                                 0000721100000007000000000033640000351600006880000000210000001700000038000005430000060300001146
1010270130BAROLO                                                                0000068100000001000000000002790000030800000587000000020000000200000004000000210000001700000038
1010270140BASTIA MONDOVI'                                                       0000062400000001000000000002260000024900000475000000020000000000000002000000050000000400000009
1010270150BATTIFOLLO                                                            0000026300000001000000000001300000012300000253000000010000000000000001000000200000002000000040
1010270160BEINETTE                                                              0000271900000002000000000013040000137500002679000000010000000300000004000001070000014500000252
1010270170BELLINO                                                               0000017900000001000000000000720000006400000136000000000000000100000001000000020000000300000005
1010270180BELVEDERE LANGHE                                                      0000037200000001000000000001570000017200000329000000000000000200000002000000160000002200000038
1010270190BENE VAGIENNA                                                         0000329900000004000000000014610000145400002915000000050000000900000014000000970000011600000213
1010270200BENEVELLO                                                             0000044800000001000000000002010000018000000381000000010000000100000002000000090000000400000013
1010270210BERGOLO                                                               0000007900000001000000000000440000005500000099000000000000000100000001000000160000002600000042
1010270220BERNEZZO                                                              0000300900000004000000000014690000155300003022000000080000001200000020000000790000007300000152
1010270230BONVICINO                                                             0000011900000001000000000000500000003800000088000000000000000000000000000000000000000000000000
1010270240BORGOMALE                                                             0000036500000001000000000001640000015800000322000000010000000000000001000000030000000400000007
1010270250BORGO SAN DALMAZZO                                                    0001127400000011000000000048660000517900010045000000270000003000000057000001160000011200000228
1010270260BOSIA                                                                 0000020400000001000000000000910000010400000195000000020000000000000002000000180000002800000046
1010270270BOSSOLASCO                                                            0000068300000001000000000002980000030300000601000000010000000000000001000000230000002900000052
1010270280BOVES                                                                 0000922200000009000000000039310000405300007984000000190000002000000039000001690000019200000361
1010270290BRA                                                                   0002798800000028000001000110770001191900022996000000450000005400000099000004450000042100000866
1010270300BRIAGLIA                                                              0000028800000001000000000001500000014000000290000000010000000000000001000000220000001000000032
1010270310BRIGA ALTA                                                            0000006200000001000000000000750000005900000134000000000000000000000000000000460000004100000087
1010270320BRONDELLO                                                             0000034900000001000000000001480000013100000279000000020000000200000004000000150000001800000033
1010270330BROSSASCO                                                             0000113300000002000000000005130000046500000978000000040000000100000005000000340000003500000069
1010270340BUSCA                                                                 0000946900000010000000000042020000435900008561000000290000002500000054000003310000036700000698
1010270350CAMERANA                                                              0000072300000001000000000002800000028100000561000000010000000100000002000000000000000000000000
1010270360CAMO                                                                  0000023800000001000000000001120000009200000204000000020000000000000002000000230000001200000035
1010270370CANALE                                                                0000521500000005000000000021500000221400004364000000160000001600000032000001420000014600000288
1010270380CANOSIO                                                               0000009300000001000000000000510000004000000091000000000000000000000000000000070000001000000017
1010270390CAPRAUNA                                                              0000013300000001000000000000730000006900000142000000000000000000000000000000110000001400000025
1010270400CARAGLIO                                                              0000621500000006000000000027510000285600005607000000180000001400000032000001950000019500000390
1010270410CARAMAGNA PIEMONTE                                                    0000267000000003000000000012330000128100002514000000060000000400000010000001030000010000000203
1010270420CARDE'                                                                0000106900000001000000000006190000065000001269000000080000000400000012000001630000017300000336
1010270430CARRU'                                                                0000400600000003000000000017870000189900003686000000130000000700000020000001500000014300000293
1010270440CARTIGNANO                                                            0000017000000001000000000000760000008000000156000000000000000000000000000000030000000800000011
1010270450CASALGRASSO                                                           0000137200000001000000000005910000061000001201000000020000000500000007000000280000003400000062
1010270460CASTAGNITO                                                            0000172800000003000000000007250000074400001469000000040000000300000007000000220000000900000031
1010270470CASTELDELFINO                                                         0000022700000001000000000001050000010900000214000000000000000000000000000000240000003400000058
1010270480CASTELLAR                                                             0000024700000001000000000001380000012300000261000000000000000300000003000000140000001400000028
1010270490CASTELLETTO STURA                                                     0000117600000001000000000005590000053400001093000000030000000600000009000000250000003300000058
1010270500CASTELLETTO UZZONE                                                    0000037500000001000000000002080000018900000397000000000000000100000001000000520000005000000102
1010270510CASTELLINALDO                                                         0000085800000001000000000003750000037300000748000000020000000200000004000000200000002400000044
1010270520CASTELLINO TANARO                                                     0000033900000001000000000001640000016100000325000000020000000000000002000000230000002300000046
1010270530CASTELMAGNO                                                           0000011700000001000000000000560000003800000094000000010000000000000001000000070000001100000018
1010270540CASTELNUOVO DI CEVA                                                   0000012100000001000000000000690000009000000159000000020000000000000002000000220000002900000051
1010270550CASTIGLIONE FALLETTO                                                  0000063200000001000000000002740000025500000529000000000000000000000000000000040000000000000004
1010270560CASTIGLIONE TINELLA                                                   0000087700000001000000000003520000037800000730000000020000000000000002000000140000001800000032
1010270570CASTINO                                                               0000052600000001000000000002230000023900000462000000010000000000000001000000300000004300000073
1010270580CAVALLERLEONE                                                         0000056100000001000000000003270000030400000631000000030000000000000003000000720000007100000143
1010270590CAVALLERMAGGIORE                                                      0000506400000006000000000023190000238300004702000000140000001500000029000003250000033300000658
1010270600CELLE DI MACRA                                                        0000010500000001000000000000540000004100000095000000000000000000000000000000020000000300000005
1010270610CENTALLO                                                              0000620900000006000000000027060000271900005425000000130000001500000028000001980000018900000387
1010270620CERESOLE ALBA                                                         0000208900000002000000000008790000084300001722000000080000000500000013000000210000002200000043
1010270630CERRETTO LANGHE                                                       0000046900000001000000000001960000017200000368000000020000000200000004000000050000000400000009
1010270640CERVASCA                                                              0000419700000005000000000020050000197200003977000000090000001300000022000000600000005200000112
1010270650CERVERE                                                               0000188200000002000000000009450000092600001871000000070000000600000013000001170000009900000216
1010270660CEVA                                                                  0000572900000005000000000022260000237900004605000000100000001300000023000001630000019600000359
1010270670CHERASCO                                                              0000720800000010000000000034350000357100007006000000150000001600000031000002190000020200000421
1010270680CHIUSA DI PESIO                                                       0000370300000006000000000016110000165000003261000000060000000500000011000001720000016600000338
1010270690CIGLIE'                                                               0000018800000001000000000000930000009900000192000000000000000000000000000000110000001500000026
1010270700CISSONE                                                               0000010000000001000000000000320000002700000059000000000000000000000000000000000000000100000001
1010270710CLAVESANA                                                             0000086800000001000000000003750000036700000742000000010000000200000003000000150000001000000025
1010270720CORNELIANO D'ALBA                                                     0000188900000002000000000007940000087300001667000000010000000600000007000000320000003700000069
1010270730CORTEMILIA                                                            0000254400000002000000000011190000114200002261000000080000000500000013000001630000016400000327
1010270740COSSANO BELBO                                                         0000107100000001000000000004960000050800001004000000060000000100000007000000940000011200000206
1010270750COSTIGLIOLE SALUZZO                                                   0000312200000003000000000012780000128800002566000000100000001200000022000000640000007200000136
1010270760CRAVANZANA                                                            0000040000000001000000000001820000019800000380000000000000000000000000000000320000003300000065
1010270770CRISSOLO                                                              0000021000000001000000000000970000006800000165000000000000000000000000000000040000000500000009
1010270780CUNEO                                                                 0005233400000054000001000211090002370500044814000000990000012300000222000008770000083000001707
1010270790DEMONTE                                                               0000204100000003000000000009080000090100001809000000010000000300000004000000530000004700000100
1010270800DIANO D'ALBA                                                          0000298000000003000000000014430000143200002875000000120000001800000030000000660000008700000153
1010270810DOGLIANI                                                              0000455400000004000000000018230000190100003724000000080000001200000020000001000000011100000211
1010270820DRONERO                                                               0000701200000008000000000027510000302200005773000000240000000700000031000001860000016000000346
1010270830ELVA                                                                  0000011400000001000000000000610000004900000110000000000000000000000000000000160000001200000028
1010270840ENTRACQUE                                                             0000084800000001000000000004000000036700000767000000000000000200000002000000230000002000000043
1010270850ENVIE                                                                 0000189000000002000000000010160000100200002018000000110000000300000014000002290000023100000460
1010270860FARIGLIANO                                                            0000175200000002000000000007280000071000001438000000030000000600000009000000500000004000000090
1010270870FAULE                                                                 0000040300000001000000000002370000023400000471000000040000000300000007000000330000003400000067
1010270880FEISOGLIO                                                             0000039500000001000000000002040000020500000409000000000000000100000001000000490000004800000097
1010270890FOSSANO                                                               0002386500000025000000000098540001020100020055000000540000005700000111000006240000058200001206
1010270900FRABOSA SOPRANA                                                       0000087500000002000000000003750000036300000738000000020000000100000003000000320000001900000051
1010270910FRABOSA SOTTANA                                                       0000139000000002000000000006700000057300001243000000040000000200000006000000110000000900000020
1010270920FRASSINO                                                              0000032400000001000000000001620000017200000334000000020000000000000002000000350000006100000096
1010270930GAIOLA                                                                0000047100000001000000000002410000022800000469000000010000000100000002000000020000000200000004
1010270940GAMBASCA                                                              0000034600000001000000000001830000017100000354000000000000000100000001000000170000001700000034
1010270950GARESSIO                                                              0000349800000006000000000014400000151400002954000000070000000600000013000001010000010700000208
1010270960GENOLA                                                                0000232300000002000000000010280000105200002080000000050000001100000016000000770000008100000158
1010270970GORZEGNO                                                              0000039300000001000000000001550000014500000300000000000000000000000000000000130000000500000018
1010270980GOTTASECCA                                                            0000018800000001000000000001050000009400000199000000010000000200000003000000310000002300000054
1010270990GOVONE                                                                0000192200000003000000000008590000093800001797000000030000000800000011000000150000001300000028
1010271000GRINZANE CAVOUR                                                       0000181200000003000000000007070000073000001437000000040000000500000009000000230000000800000031
1010271010GUARENE                                                               0000301800000003000000000013290000136000002689000000070000000900000016000000440000003900000083
1010271020IGLIANO                                                               0000008100000001000000000000500000004900000099000000000000000100000001000000130000001700000030
1010271030ISASCA                                                                0000011200000001000000000000550000004000000095000000000000000000000000000000110000001000000021
1010271040LAGNASCO                                                              0000129100000001000000000005980000061500001213000000040000000400000008000000940000009900000193
1010271050LA MORRA                                                              0000261000000003000000000011140000111500002229000000090000000900000018000000710000007600000147
1010271060LEQUIO BERRIA                                                         0000052400000001000000000002450000021000000455000000000000000000000000000000190000001600000035
1010271070LEQUIO TANARO                                                         0000068300000001000000000003490000035000000699000000000000000100000001000000500000005700000107
1010271080LESEGNO                                                               0000083800000002000000000003680000040600000774000000010000000400000005000000430000005700000100
1010271090LEVICE                                                                0000027000000001000000000001480000013400000282000000010000000000000001000000450000003600000081
1010271100LIMONE PIEMONTE                                                       0000154800000002000000000006980000068800001386000000040000000000000004000000550000005100000106
1010271110LISIO                                                                 0000024800000001000000000000980000009100000189000000000000000000000000000000080000000700000015
1010271120MACRA                                                                 0000006100000001000000000000290000002400000053000000000000000000000000000000060000000400000010
1010271130MAGLIANO ALFIERI                                                      0000167400000003000000000007720000081700001589000000020000000100000003000000260000002100000047
1010271140MAGLIANO ALPI                                                         0000211100000003000000000008980000093300001831000000090000000100000010000000550000007400000129
1010271150MANGO                                                                 0000133400000002000000000005430000055300001096000000010000000400000005000000370000003500000072
1010271160MANTA                                                                 0000336300000003000000000014560000155900003015000000050000001300000018000000670000007400000141
1010271170MARENE                                                                0000270300000003000000000012610000126300002524000000080000000800000016000001120000008800000200
1010271180MARGARITA                                                             0000129700000002000000000005840000060300001187000000050000000600000011000000240000003800000062
1010271190MARMORA                                                               0000009900000001000000000000400000004100000081000000010000000100000002000000060000000500000011
1010271200MARSAGLIA                                                             0000031600000001000000000001180000012100000239000000000000000000000000000000060000000500000011
1010271210MARTINIANA PO                                                         0000066700000001000000000003410000031500000656000000020000000000000002000000190000001600000035
1010271220MELLE                                                                 0000036400000001000000000001720000016200000334000000000000000100000001000000300000002100000051
1010271230MOIOLA                                                                0000029600000001000000000001210000011200000233000000000000000000000000000000020000000400000006
1010271240MOMBARCARO                                                            0000032000000001000000000001260000012700000253000000000000000000000000000000100000000300000013
1010271250MOMBASIGLIO                                                           0000063000000001000000000002850000032300000608000000010000000200000003000000470000005000000097
1010271260MONASTERO DI VASCO                                                    0000120000000002000000000005510000057000001121000000010000000300000004000000210000002400000045
1010271270MONASTEROLO CASOTTO                                                   0000012600000001000000000000450000004900000094000000000000000000000000000000010000000000000001
1010271280MONASTEROLO DI SAVIGLIANO                                             0000117300000001000000000005880000062400001212000000020000000300000005000000830000008000000163
1010271290MONCHIERO                                                             0000051800000001000000000002130000021600000429000000000000000300000003000000150000002000000035
1010271300MONDOVI'                                                              0002188000000022000000000085850000930100017886000000500000005300000103000004600000043900000899
1010271310MONESIGLIO                                                            0000075200000001000000000002880000031400000602000000010000000000000001000000110000001100000022
1010271320MONFORTE D'ALBA                                                       0000191700000002000000000007830000080800001591000000030000000200000005000000510000005200000103
1010271330MONTA'                                                                0000429200000005000000000017560000185900003615000000040000000700000011000000340000003300000067
1010271340MONTALDO DI MONDOVI'                                                  0000058700000002000000000002440000027900000523000000000000000000000000000000110000002200000033
1010271350MONTALDO ROERO                                                        0000086600000002000000000003740000037400000748000000030000000300000006000000050000000700000012
1010271360MONTANERA                                                             0000073100000001000000000003080000029200000600000000050000000100000006000000290000002500000054
1010271370MONTELUPO ALBESE                                                      0000045900000001000000000002140000021600000430000000010000000000000001000000200000001700000037
1010271380MONTEMALE DI CUNEO                                                    0000022200000001000000000001080000010700000215000000010000000100000002000000140000001800000032
1010271390MONTEROSSO GRANA                                                      0000057000000002000000000002420000023600000478000000030000000200000005000000360000004100000077
1010271400MONTEU ROERO                                                          0000160300000002000000000007450000074500001490000000020000000400000006000000550000005700000112
1010271410MONTEZEMOLO                                                           0000030500000001000000000001750000014300000318000000030000000000000003000000400000004600000086
1010271420MONTICELLO D'ALBA                                                     0000191100000002000000000008320000085600001688000000030000000400000007000000000000000000000000
1010271430MORETTA                                                               0000410600000004000000000018060000194900003755000000040000001000000014000002030000022100000424
1010271440MOROZZO                                                               0000197900000003000000000008550000079800001653000000030000000700000010000000410000003200000073
1010271450MURAZZANO                                                             0000085600000001000000000004260000042800000854000000060000000100000007000000940000009900000193
1010271460MURELLO                                                               0000089900000001000000000004840000046700000951000000020000000200000004000000770000007600000153
1010271470NARZOLE                                                               0000330500000003000000000012900000130000002590000000090000000900000018000000770000006100000138
1010271480NEIVE                                                                 0000293800000004000000000012050000128900002494000000050000000600000011000000280000002000000048
1010271490NEVIGLIE                                                              0000041900000001000000000001650000018000000345000000010000000000000001000000010000000200000003
1010271500NIELLA BELBO                                                          0000042100000001000000000002040000020500000409000000010000000100000002000000370000003100000068
1010271510NIELLA TANARO                                                         0000102700000001000000000004410000046100000902000000010000000300000004000000220000002600000048
1010271520NOVELLO                                                               0000093100000001000000000003990000040000000799000000020000000300000005000000140000002100000035
1010271530NUCETTO                                                               0000047300000001000000000002250000023000000455000000000000000400000004000000490000005600000105
1010271540ONCINO                                                                0000010200000001000000000000540000003800000092000000000000000100000001000000090000000700000016
1010271550ORMEA                                                                 0000196700000002000000000008390000085800001697000000060000000500000011000000920000010100000193
1010271560OSTANA                                                                0000007900000001000000000000450000003600000081000000000000000100000001000000020000000800000010
1010271570PAESANA                                                               0000307200000003000000000012840000137300002657000000060000000500000011000001250000012000000245
1010271580PAGNO                                                                 0000055400000001000000000002680000026700000535000000020000000200000004000000300000002200000052
1010271590PAMPARATO                                                             0000040300000003000000000001630000016100000324000000000000000200000002000000020000001000000012
1010271600PAROLDO                                                               0000024600000001000000000001180000013700000255000000000000000000000000000000250000004200000067
1010271610PERLETTO                                                              0000032800000001000000000001490000013700000286000000010000000200000003000000240000002000000044
1010271620PERLO                                                                 0000013000000001000000000001000000010600000206000000010000000000000001000000450000005600000101
1010271630PEVERAGNO                                                             0000520700000005000000000023750000244700004822000000150000001200000027000002100000023100000441
1010271640PEZZOLO VALLE UZZONE                                                  0000037000000001000000000001930000020600000399000000000000000000000000000000530000006200000115
1010271650PIANFEI                                                               0000181100000003000000000009740000095200001926000000050000000500000010000001150000011900000234
1010271660PIASCO                                                                0000271100000003000000000011600000124000002400000000090000000600000015000000760000006500000141
1010271670PIETRAPORZIO                                                          0000011500000001000000000000410000003400000075000000000000000000000000000000010000000100000002
1010271680PIOBESI D'ALBA                                                        0000102700000001000000000004820000048800000970000000010000000100000002000000060000000600000012
1010271690PIOZZO                                                                0000099700000001000000000004230000045800000881000000010000000400000005000000390000002800000067
1010271700POCAPAGLIA                                                            0000275800000003000000000013530000135000002703000000060000001200000018000000440000004200000086
1010271710POLONGHERA                                                            0000113800000001000000000004710000048600000957000000040000000000000004000000130000001500000028
1010271720PONTECHIANALE                                                         0000020800000001000000000001010000010400000205000000000000000300000003000000150000002300000038
1010271730PRADLEVES                                                             0000031700000001000000000001320000013400000266000000000000000000000000000000180000002000000038
1010271740PRAZZO                                                                0000021800000001000000000000870000009000000177000000000000000000000000000000150000001300000028
1010271750PRIERO                                                                0000044100000001000000000001830000020000000383000000020000000000000002000000120000001600000028
1010271760PRIOCCA                                                               0000195600000002000000000008510000087000001721000000090000000500000014000000530000004400000097
1010271770PRIOLA                                                                0000080400000003000000000003490000035900000708000000030000000000000003000000520000005200000104
1010271780PRUNETTO                                                              0000049200000001000000000002130000021900000432000000010000000200000003000000110000001800000029
1010271790RACCONIGI                                                             0000985600000011000000000040360000429400008330000000230000003000000053000002010000024900000450
1010271800REVELLO                                                               0000419200000004000000000018660000192600003792000000070000001100000018000002140000022000000434
1010271810RIFREDDO                                                              0000103200000001000000000004220000041800000840000000030000000200000005000000050000000700000012
1010271820RITTANA                                                               0000014900000001000000000000660000007200000138000000000000000000000000000000070000001000000017
1010271830ROASCHIA                                                              0000016600000001000000000001050000008600000191000000000000000000000000000000290000002800000057
1010271840ROASCIO                                                               0000008500000001000000000000420000004500000087000000000000000000000000000000050000001500000020
1010271850ROBILANTE                                                             0000231600000003000000000009770000099600001973000000070000000400000011000000390000005100000090
1010271860ROBURENT                                                              0000056500000003000000000002770000026800000545000000000000000100000001000000350000003100000066
1010271870ROCCABRUNA                                                            0000146000000002000000000006590000068700001346000000050000000400000009000000420000005200000094
1010271880ROCCA CIGLIE'                                                         0000015700000001000000000000680000007600000144000000000000000000000000000000040000000900000013
1010271890ROCCA DE' BALDI                                                       0000161600000003000000000007210000070600001427000000090000000400000013000000510000004800000099
1010271900ROCCAFORTE MONDOVI'                                                   0000202400000004000000000009200000088800001808000000040000000500000009000000620000006100000123
1010271910ROCCASPARVERA                                                         0000067200000001000000000003260000029600000622000000010000000200000003000000070000000900000016
1010271920ROCCAVIONE                                                            0000279100000003000000000011930000122500002418000000090000000600000015000000700000009200000162
1010271930ROCCHETTA BELBO                                                       0000019100000001000000000000930000008400000177000000010000000000000001000000130000001300000026
1010271940RODDI                                                                 0000132300000002000000000006110000061200001223000000020000000300000005000000010000000200000003
1010271950RODDINO                                                               0000036300000001000000000001880000017800000366000000000000000000000000000000260000003100000057
1010271960RODELLO                                                               0000090800000001000000000004040000039400000798000000080000000300000011000000090000000500000014
1010271970ROSSANA                                                               0000093400000001000000000004420000046900000911000000050000000200000007000000790000010900000188
1010271980RUFFIA                                                                0000031100000001000000000001790000014400000323000000020000000100000003000000330000002200000055
1010271990SALE DELLE LANGHE                                                     0000049000000001000000000002610000023300000494000000020000000100000003000000290000003600000065
1010272000SALE SAN GIOVANNI                                                     0000019300000001000000000000740000007300000147000000000000000100000001000000000000000000000000
1010272010SALICETO                                                              0000150000000002000000000006370000068300001320000000020000000100000003000000780000008500000163
1010272020SALMOUR                                                               0000070400000001000000000003160000029300000609000000000000000200000002000000340000003500000069
1010272030SALUZZO                                                               0001564700000017000000000065450000732600013871000000360000003500000071000004400000047300000913
1010272040SAMBUCO                                                               0000008900000001000000000000720000007400000146000000000000000100000001000000260000002800000054
1010272050SAMPEYRE                                                              0000114400000002000000000006130000064700001260000000020000000100000003000001620000018600000348
1010272060SAN BENEDETTO BELBO                                                   0000019200000001000000000001110000010800000219000000010000000100000002000000260000003000000056
1010272070SAN DAMIANO MACRA                                                     0000047700000001000000000002230000021000000433000000010000000100000002000000200000002700000047
1010272080SANFRE'                                                               0000250000000003000000000011380000120600002344000000050000001400000019000000170000002400000041
1010272090SANFRONT                                                              0000261100000003000000000010770000109700002174000000030000000600000009000000350000003900000074
1010272100SAN MICHELE MONDOVI'                                                  0000206900000003000000000007680000080700001575000000040000000600000010000000350000002300000058
1010272110SANT'ALBANO STURA                                                     0000208400000002000000000010080000096100001969000000050000000700000012000000510000004200000093
1010272120SANTA VITTORIA D'ALBA                                                 0000251200000003000000000010530000105800002111000000070000000700000014000000270000002400000051
1010272130SANTO STEFANO BELBO                                                   0000403700000004000000000016530000180600003459000000060000001300000019000001620000019700000359
1010272140SANTO STEFANO ROERO                                                   0000123600000001000000000005890000060100001190000000030000000300000006000000520000004200000094
1010272150SAVIGLIANO                                                            0001988400000020000001000082260000878200017008000000400000003900000079000004200000038900000809
1010272160SCAGNELLO                                                             0000020900000001000000000001050000010400000209000000000000000000000000000000110000001400000025
1010272170SCARNAFIGI                                                            0000191000000002000000000009090000087900001788000000030000000600000009000001310000010300000234
1010272180SERRALUNGA D'ALBA                                                     0000049100000001000000000002080000018300000391000000000000000200000002000000150000001100000026
1010272190SERRAVALLE LANGHE                                                     0000035200000001000000000001560000013600000292000000020000000000000002000000060000000800000014
1010272200SINIO                                                                 0000046100000001000000000001980000020100000399000000010000000100000002000000160000001800000034
1010272210SOMANO                                                                0000038600000001000000000002170000022000000437000000020000000100000003000000640000006400000128
1010272220SOMMARIVA DEL BOSCO                                                   0000577900000005000000000025250000265900005184000000130000001200000025000001140000011600000230
1010272230SOMMARIVA PERNO                                                       0000262600000003000000000011280000118100002309000000060000000700000013000000450000003400000079
1010272240STROPPO                                                               0000010800000001000000000000450000004600000091000000000000000000000000000000010000000200000003
1010272250TARANTASCA                                                            0000194000000003000000000009530000090200001855000000040000000400000008000001220000011200000234
1010272260TORRE BORMIDA                                                         0000023200000001000000000001080000009600000204000000010000000000000001000000130000001400000027
1010272270TORRE MONDOVI'                                                        0000052100000002000000000002100000023500000445000000010000000000000001000000210000002200000043
1010272280TORRE SAN GIORGIO                                                     0000067200000001000000000003400000036500000705000000000000000000000000000000590000007100000130
1010272290TORRESINA                                                             0000006700000001000000000000270000002700000054000000000000000000000000000000000000000000000000
1010272291TREISO                                                                0000076300000001000000000003200000032400000644000000040000000100000005000000040000000400000008
1010272300TREZZO TINELLA                                                        0000035600000001000000000001400000015000000290000000020000000000000002000000000000000200000002
1010272310TRINITA'                                                              0000198100000002000000000009250000095800001883000000040000000600000010000001110000011400000225
1010272320VALDIERI                                                              0000096400000003000000000005100000046800000978000000010000000100000002000000930000008700000180
1010272330VALGRANA                                                              0000079700000001000000000003530000035900000712000000040000000400000008000000170000002000000037
1010272340VALLORIATE                                                            0000016600000001000000000000830000006100000144000000000000000000000000000000210000001100000032
1010272350VALMALA                                                               0000005600000001000000000000500000003800000088000000000000000000000000000000100000001500000025
1010272360VENASCA                                                               0000151200000002000000000006380000066600001304000000050000000500000010000000470000003900000086
1010272370VERDUNO                                                               0000051200000001000000000002350000023300000468000000040000000000000004000000130000000800000021
1010272380VERNANTE                                                              0000133200000001000000000005500000057200001122000000050000000300000008000000280000002700000055
1010272390VERZUOLO                                                              0000619600000005000000000024640000268000005144000000180000001300000031000001500000016200000312
1010272400VEZZA D'ALBA                                                          0000207300000003000000000009350000090100001836000000040000000700000011000000260000002300000049
1010272410VICOFORTE                                                             0000302400000003000000000012880000134700002635000000050000001000000015000000330000002600000059
1010272420VIGNOLO                                                               0000205400000002000000000009740000097900001953000000060000000800000014000000270000001700000044
1010272430VILLAFALLETTO                                                         0000287600000004000000000012320000125400002486000000060000000500000011000001190000011100000230
1010272440VILLANOVA MONDOVI'                                                    0000544500000006000000000022770000240300004680000000110000001400000025000000870000008300000170
1010272450VILLANOVA SOLARO                                                      0000078200000001000000000004140000038800000802000000020000000300000005000000610000007500000136
1010272460VILLAR SAN COSTANZO                                                   0000139600000002000000000006930000068400001377000000020000000300000005000000880000009600000184
1010272470VINADIO                                                               0000073200000001000000000003050000030100000606000000000000000200000002000000190000002500000044
1010272480VIOLA                                                                 0000046100000002000000000002060000019700000403000000010000000200000003000000160000001800000034
1010272490VOTTIGNASCO                                                           0000057300000001000000000002490000023400000483000000010000000200000003000000120000001000000022
1010520010AGRATE CONTURBIA                                                      0000118400000002000000000006480000063700001285000000060000000200000008000000430000002800000071
1010520020AMENO                                                                 0000089500000001000000000004030000042200000825000000010000000100000002000000420000004300000085
1010520060ARMENO                                                                0000218700000003000000000010240000105400002078000000030000000400000007000001620000010900000271
1010520070ARONA                                                                 0001431000000015000000000056760000658900012265000000200000002800000048000003950000038900000784
1010520110BARENGO                                                               0000094200000001000000000003910000039000000781000000040000000500000009000000260000001800000044
1010520150BELLINZAGO NOVARESE                                                   0000836500000009000000000038320000379200007624000000210000001300000034000000540000003400000088
1010520170BIANDRATE                                                             0000110300000001000000000004580000046300000921000000010000000200000003000000110000000400000015
1010520180BOCA                                                                  0000118600000001000000000005730000059200001165000000020000000300000005000001010000010900000210
1010520200BOGOGNO                                                               0000115900000001000000000005380000057000001108000000000000000400000004000000380000003400000072
1010520210BOLZANO NOVARESE                                                      0000104000000001000000000005050000051100001016000000040000000200000006000000360000003200000068
